:100000000C945D000C9485000C9485000C94850084
:100010000C9485000C9485000C9485000C9485004C
:100020000C9485000C9485000C9485000C9485003C
:100030000C9485000C9485000C9485000C9485002C
:100040000C9477020C9485000C94E7020C94C10286
:100050000C9485000C9485000C9485000C9485000C
:100060000C9485000C94850000000008000201003B
:100070000003040700000000000000000000000072
:10008000250028002B0000000000240027002A0083
:10009000040404040404040402020202020203032E
:1000A0000303030301020408102040800102040836
:1000B0001020010204081020D60311241FBECFEF28
:1000C000D8E0DEBFCDBF11E0A0E0B1E0E6E1F8E0AE
:1000D00002C005900D92A03BB107D9F722E0A0EB3A
:1000E000B1E001C01D92A635B207E1F710E0CDE501
:1000F000D0E004C02197FE010E940304CC35D10753
:10010000C9F70E9419030C9409040C94000090E0B4
:10011000FC01EC55FF4F249180579F4FFC018491C7
:10012000882399F090E0880F991FFC01EA57FF4F50
:10013000A591B491FC01E458FF4F859194918FB73C
:10014000F894EC91E22BEC938FBF089590E0FC01C2
:10015000E859FF4F2491FC01EC55FF4F3491FC010D
:10016000E057FF4FE491EE23C9F0222339F023300A
:1001700001F1A8F4213019F1223029F1F0E0EE0F5D
:10018000FF1FE458FF4FA591B4918FB7F894EC91FD
:10019000611126C030953E233C938FBF08952730D0
:1001A000A9F02830C9F0243049F7809180008F7D74
:1001B00003C0809180008F7780938000DFCF84B56B
:1001C0008F7784BDDBCF84B58F7DFBCF8091B0006E
:1001D0008F778093B000D2CF8091B0008F7DF9CF20
:1001E0003E2BDACF3FB7F8948091B5019091B601DC
:1001F000A091B701B091B80126B5A89B05C02F3FCB
:1002000019F00196A11DB11D3FBFBA2FA92F982F3C
:100210008827BC01CD01620F711D811D911D42E037
:10022000660F771F881F991F4A95D1F708958F92FF
:100230009F92AF92BF92CF92DF92EF92FF920E9475
:10024000F2004B015C0180EDC82E87E0D82EE12C36
:10025000F12C0E94F200681979098A099B09683E0D
:10026000734081059105A8F321E0C21AD108E10885
:10027000F10888EE880E83E0981EA11CB11CC11401
:10028000D104E104F10429F7FF90EF90DF90CF90C3
:10029000BF90AF909F908F900895AF92BF92CF92F2
:1002A000DF92EF92FF920F931F93CF93DF936C0136
:1002B0007B018B01040F151FEB015E01AE18BF0817
:1002C000C017D10759F06991D601ED91FC910190C9
:1002D000F081E02DC6010995892B79F7C501DF91E1
:1002E000CF911F910F91FF90EF90DF90CF90BF9033
:1002F000AF900895FC01538D448D252F30E0842F5D
:1003000090E0821B930B541710F0CF96089501973D
:100310000895FC01918D828D981761F0A28DAE0F2A
:10032000BF2FB11D5D968C91928D9F5F9F73928FB1
:1003300090E008958FEF9FEF0895FC01918D828DDD
:10034000981731F0828DE80FF11D858D90E00895AA
:100350008FEF9FEF0895FC01918D228D892F90E002
:10036000805C9F4F821B91098F739927089589EBB9
:1003700091E00E94AB0121E0892B09F420E0822F5B
:10038000089580E090E0892B29F00E94B701811147
:100390000C9400000895FC01A48DA80FB92FB11D85
:1003A000A35ABF4F2C91848D90E001968F739927AB
:1003B000848FA689B7892C93A089B1898C91837089
:1003C00080648C93938D848D981306C00288F38982
:1003D000E02D80818F7D80830895EF92FF920F93AF
:1003E0001F93CF93DF93EC0181E0888F9B8D8C8DE1
:1003F00098131AC0E889F989808185FF15C09FB7D5
:10040000F894EE89FF896083E889F9898081837097
:10041000806480839FBF81E090E0DF91CF911F9146
:100420000F91FF90EF900895F62E0B8D10E00F5F67
:100430001F4F0F731127E02E8C8D8E110CC00FB63D
:1004400007FCFACFE889F989808185FFF5CFCE01D5
:100450000E94CB01F1CFEB8DEC0FFD2FF11DE35A84
:10046000FF4FF0829FB7F8940B8FEA89FB89808158
:100470008062CFCFCF93DF93EC01888D8823B9F0D2
:10048000AA89BB89E889F9898C9185FD03C080819F
:1004900086FD0DC00FB607FCF7CF8C9185FFF2CF1C
:1004A000808185FFEDCFCE010E94CB01E9CFDF91A6
:1004B000CF910895CF93DF93FC0101900020E9F7DD
:1004C0003197AF01481B590BBC0189EB91E00E94A9
:1004D0004D01EC0142E050E062E171E089EB91E016
:1004E0000E944D018C0F9D1FDF91CF9108951F92A7
:1004F0000F920FB60F9211242F933F938F939F93D8
:10050000AF93BF938091B1019091B201A091B301DB
:10051000B091B4013091B00123E0230F2D3758F58D
:100520000196A11DB11D2093B0018093B10190935C
:10053000B201A093B301B093B4018091B501909141
:10054000B601A091B701B091B8010196A11DB11DEE
:100550008093B5019093B601A093B701B093B80111
:10056000BF91AF919F918F913F912F910F900FBEAF
:100570000F901F90189526E8230F0296A11DB11D1C
:10058000D2CF1F920F920FB60F9211242F933F9349
:100590004F935F936F937F938F939F93AF93BF938B
:1005A000EF93FF9389EB91E00E94CB01FF91EF91D4
:1005B000BF91AF919F918F917F916F915F914F917B
:1005C0003F912F910F900FBE0F901F9018951F9283
:1005D0000F920FB60F9211242F938F939F93EF9347
:1005E000FF93E091C901F091CA018081E091CF01B0
:1005F000F091D00182FD1BC090818091D2018F5F6C
:100600008F732091D301821741F0E091D201F0E085
:10061000E754FE4F958F8093D201FF91EF919F9108
:100620008F912F910F900FBE0F901F901895808182
:10063000F4CF789484B5826084BD84B5816084BD34
:1006400085B5826085BD85B5816085BD80916E0070
:10065000816080936E0010928100809181008260A1
:1006600080938100809181008160809381008091DE
:1006700080008160809380008091B10084608093CD
:10068000B1008091B00081608093B00080917A00C9
:10069000846080937A0080917A00826080937A00EF
:1006A00080917A00816080937A0080917A008068DE
:1006B00080937A001092C100E091C901F091CA01C3
:1006C00082E08083E091C501F091C6011082E09143
:1006D000C701F091C80180E180831092D101E091BF
:1006E000CD01F091CE0186E08083E091CB01F091C5
:1006F000CC01808180618083E091CB01F091CC01BD
:10070000808188608083E091CB01F091CC01808171
:1007100080688083E091CB01F091CC0180818F7D56
:10072000808385E191E00E945A028DE00E9487005B
:100730008CE00E948700C0E0D0E087E391E00E9457
:100740005A0260E08CE00E94A60061E08DE00E9409
:10075000A6000E94170185E591E00E945A0260E020
:100760008DE00E94A6000E94170182E791E00E949E
:100770005A0261E08CE00E94A60061E08DE00E94D8
:10078000A6000E94170181E991E00E945A0260E0F0
:100790008DE00E94A6000E941701209771F20E942E
:1007A000B701882351F20E940000C7CFE9EBF1E0C6
:1007B0001382128288EE93E0A0E0B0E084839583F8
:1007C000A683B78384E091E09183808385EC90E0F9
:1007D0009587848784EC90E09787868780EC90E00B
:1007E000918B808B81EC90E0938B828B82EC90E0FC
:1007F000958B848B86EC90E0978B868B118E128E76
:10080000138E148E0895EE0FFF1F0590F491E02DC6
:060810000994F894FFCFEB
:1008160000000000ED014D017A013A02AB018901A9
:100826009D010D0A0041726475696E6F2044656D05
:1008360075782054657374657220496E69746961B0
:100846006C697A65642E002D2D3E2054657374699B
:100856006E673A2053454C3D4C4F572C20494E3D30
:1008660048494748002D2D3E2054657374696E67CC
:100876003A2053454C3D4C4F572C20494E3D4C4F4A
:1008860057002D2D3E2054657374696E673A2053C8
:10089600454C3D484947482C20494E3D4849474824
:1008A600002D2D3E2054657374696E673A205345BA
:1008B6004C3D484947482C20494E3D4C4F57000077
:00000001FF
